:020000040000FA
:10000000708C0020E1000000E9000000EB0000001F
:10001000ED000000EF000000F10000000000000013
:10002000000000000000000000000000F3000000DD
:10003000F500000000000000F7000000A50100002E
:10004000FB00000000F002F800F03AF80AA090E887
:10005000000C82448344AAF10107DA4501D100F083
:100060002FF8AFF2090EBAE80F0013F0010F18BF16
:10007000FB1A43F001031847C8010000E801000023
:10008000103A24BF78C878C1FAD8520724BF30C8C4
:1000900030C144BF04680C60704700000023002496
:1000A00000250026103A28BF78C1FBD8520728BF88
:1000B00030C148BF0B6070471FB51FBD10B510BDE4
:1000C00000F035F81146FFF7F7FF00F08BF800F06D
:1000D00053F803B4FFF7F2FF03BC00F05BF8000035
:1000E0000B4880470B480047FEE7FEE7FEE7FEE7C8
:1000F000FEE7FEE7FEE7FEE7FEE700B500F060F88A
:1001000000BD000004480549054A064B7047000041
:10011000B50100004500000070000020708C002038
:10012000700C0020700C00207047704770477546B7
:1001300000F02CF8AE4605006946534620F0070053
:10014000854618B020B5FFF7DDFFBDE820404FF031
:1001500000064FF000074FF000084FF0000BAC46D0
:10016000ACE8C009ACE8C009ACE8C009ACE8C0091B
:1001700021F007018D46704710B50446AFF30080AB
:100180002046BDE81040FFF7A4BF000000487047BC
:100190000800002001491820ABBEFEE7260002003F
:1001A000704700000248016801310160704700BFDC
:1001B000680000201F4801490160704740787D01B8
:1001C00007480068C10705D140074FF0F00058BF4D
:1001D000012000E00F204FF080410860704700BF11
:1001E0000800604012480121C0F8F0101149096868
:1001F0004FF4FA72B1FBF2F14A1E0021B1EB126F1B
:1002000006D142600C4AE02313708160072101602F
:100210000A481021C1604FF08041AA220A6081681B
:1002200001F049010129FAD101784160F7E700BFE7
:1002300010E000E00000002023ED00E0000060403E
:1002400060020000000000200800000080000000A4
:100250006802000008000020688C00009C0000007C
:0802600040787D010000000060
:0400000500000045B2
:00000001FF
